{
  "contractName": "BTracer_v1",
  "abi": [
    {
      "inputs": [],
      "stateMutability": "nonpayable",
      "type": "constructor"
    },
    {
      "inputs": [
        {
          "internalType": "string",
          "name": "_id",
          "type": "string"
        },
        {
          "internalType": "string",
          "name": "orderno",
          "type": "string"
        },
        {
          "internalType": "string",
          "name": "process",
          "type": "string"
        },
        {
          "internalType": "string",
          "name": "operation",
          "type": "string"
        }
      ],
      "name": "addNewTrace_Payload_B",
      "outputs": [
        {
          "internalType": "bool",
          "name": "_retB",
          "type": "bool"
        }
      ],
      "stateMutability": "nonpayable",
      "type": "function"
    },
    {
      "inputs": [
        {
          "internalType": "string",
          "name": "_id",
          "type": "string"
        },
        {
          "internalType": "string",
          "name": "production",
          "type": "string"
        },
        {
          "internalType": "string",
          "name": "year",
          "type": "string"
        },
        {
          "internalType": "string",
          "name": "lastsequence",
          "type": "string"
        }
      ],
      "name": "addNewTrace_Payload_C",
      "outputs": [
        {
          "internalType": "bool",
          "name": "_retC",
          "type": "bool"
        }
      ],
      "stateMutability": "nonpayable",
      "type": "function"
    },
    {
      "inputs": [
        {
          "internalType": "string",
          "name": "_id",
          "type": "string"
        },
        {
          "internalType": "string",
          "name": "tckr_type",
          "type": "string"
        },
        {
          "internalType": "string",
          "name": "comments",
          "type": "string"
        },
        {
          "internalType": "string",
          "name": "usage",
          "type": "string"
        }
      ],
      "name": "addNewTrace_Payload_D",
      "outputs": [
        {
          "internalType": "bool",
          "name": "_retD",
          "type": "bool"
        }
      ],
      "stateMutability": "nonpayable",
      "type": "function"
    },
    {
      "inputs": [
        {
          "internalType": "string",
          "name": "_id",
          "type": "string"
        },
        {
          "internalType": "string",
          "name": "farm",
          "type": "string"
        },
        {
          "internalType": "string",
          "name": "farmer",
          "type": "string"
        },
        {
          "internalType": "string",
          "name": "variety",
          "type": "string"
        },
        {
          "internalType": "string",
          "name": "weather",
          "type": "string"
        },
        {
          "internalType": "string",
          "name": "region",
          "type": "string"
        }
      ],
      "name": "addNewTrace_Payload_E",
      "outputs": [
        {
          "internalType": "bool",
          "name": "_retE",
          "type": "bool"
        }
      ],
      "stateMutability": "nonpayable",
      "type": "function"
    },
    {
      "inputs": [
        {
          "internalType": "string",
          "name": "_id",
          "type": "string"
        }
      ],
      "name": "getTrace_Payload_B",
      "outputs": [
        {
          "internalType": "string",
          "name": "orderno",
          "type": "string"
        },
        {
          "internalType": "string",
          "name": "process",
          "type": "string"
        },
        {
          "internalType": "string",
          "name": "operation",
          "type": "string"
        }
      ],
      "stateMutability": "view",
      "type": "function",
      "constant": true
    },
    {
      "inputs": [
        {
          "internalType": "string",
          "name": "_id",
          "type": "string"
        }
      ],
      "name": "getTrace_Payload_C",
      "outputs": [
        {
          "internalType": "string",
          "name": "production",
          "type": "string"
        },
        {
          "internalType": "string",
          "name": "year",
          "type": "string"
        },
        {
          "internalType": "string",
          "name": "lastsequence",
          "type": "string"
        }
      ],
      "stateMutability": "view",
      "type": "function",
      "constant": true
    },
    {
      "inputs": [
        {
          "internalType": "string",
          "name": "_id",
          "type": "string"
        }
      ],
      "name": "getTrace_Payload_D",
      "outputs": [
        {
          "internalType": "string",
          "name": "tckr_type",
          "type": "string"
        },
        {
          "internalType": "string",
          "name": "comments",
          "type": "string"
        },
        {
          "internalType": "string",
          "name": "usage",
          "type": "string"
        }
      ],
      "stateMutability": "view",
      "type": "function",
      "constant": true
    },
    {
      "inputs": [
        {
          "internalType": "string",
          "name": "_id",
          "type": "string"
        }
      ],
      "name": "getTrace_Payload_E",
      "outputs": [
        {
          "internalType": "string",
          "name": "farm",
          "type": "string"
        },
        {
          "internalType": "string",
          "name": "farmer",
          "type": "string"
        },
        {
          "internalType": "string",
          "name": "variety",
          "type": "string"
        },
        {
          "internalType": "string",
          "name": "weather",
          "type": "string"
        },
        {
          "internalType": "string",
          "name": "region",
          "type": "string"
        }
      ],
      "stateMutability": "view",
      "type": "function",
      "constant": true
    },
    {
      "inputs": [
        {
          "internalType": "string",
          "name": "_id",
          "type": "string"
        },
        {
          "internalType": "string",
          "name": "trace",
          "type": "string"
        }
      ],
      "name": "addTraceCod",
      "outputs": [
        {
          "internalType": "bool",
          "name": "",
          "type": "bool"
        }
      ],
      "stateMutability": "nonpayable",
      "type": "function"
    },
    {
      "inputs": [
        {
          "internalType": "string",
          "name": "_id",
          "type": "string"
        }
      ],
      "name": "getTraceCod",
      "outputs": [
        {
          "internalType": "string",
          "name": "",
          "type": "string"
        }
      ],
      "stateMutability": "view",
      "type": "function",
      "constant": true
    }
  ],
  "bytecode": "0x60806040523480156200001157600080fd5b5060606040518060400160405280600181526020017f300000000000000000000000000000000000000000000000000000000000000081525090506040518060400160405280600581526020017f41323032300000000000000000000000000000000000000000000000000000008152506000826040518082805190602001908083835b60208310620000ba578051825260208201915060208101905060208303925062000095565b6001836020036101000a038019825116818451168082178552505050505050905001915050908152602001604051809103902060000190805190602001906200010592919062000a7f565b506040518060400160405280600981526020017f50726f63657373204100000000000000000000000000000000000000000000008152506000826040518082805190602001908083835b602083106200017457805182526020820191506020810190506020830392506200014f565b6001836020036101000a03801982511681845116808217855250505050505090500191505090815260200160405180910390206001019080519060200190620001bf92919062000a7f565b506040518060400160405280600b81526020017f6f7065726174696f6e20410000000000000000000000000000000000000000008152506000826040518082805190602001908083835b602083106200022e578051825260208201915060208101905060208303925062000209565b6001836020036101000a038019825116818451168082178552505050505050905001915050908152602001604051809103902060020190805190602001906200027992919062000a7f565b506040518060400160405280600c81526020017f70726f64756374696f6e204100000000000000000000000000000000000000008152506000826040518082805190602001908083835b60208310620002e85780518252602082019150602081019050602083039250620002c3565b6001836020036101000a038019825116818451168082178552505050505050905001915050908152602001604051809103902060030190805190602001906200033392919062000a7f565b506040518060400160405280600481526020017f32303230000000000000000000000000000000000000000000000000000000008152506000826040518082805190602001908083835b60208310620003a257805182526020820191506020810190506020830392506200037d565b6001836020036101000a03801982511681845116808217855250505050505090500191505090815260200160405180910390206004019080519060200190620003ed92919062000a7f565b506040518060400160405280600181526020017f31000000000000000000000000000000000000000000000000000000000000008152506000826040518082805190602001908083835b602083106200045c578051825260208201915060208101905060208303925062000437565b6001836020036101000a03801982511681845116808217855250505050505090500191505090815260200160405180910390206005019080519060200190620004a792919062000a7f565b506040518060400160405280600481526020017f54797065000000000000000000000000000000000000000000000000000000008152506000826040518082805190602001908083835b60208310620005165780518252602082019150602081019050602083039250620004f1565b6001836020036101000a038019825116818451168082178552505050505050905001915050908152602001604051809103902060060190805190602001906200056192919062000a7f565b506040518060400160405280601481526020017f436f6d6d656e747320636f6d65732068657265210000000000000000000000008152506000826040518082805190602001908083835b60208310620005d05780518252602082019150602081019050602083039250620005ab565b6001836020036101000a038019825116818451168082178552505050505050905001915050908152602001604051809103902060070190805190602001906200061b92919062000a7f565b506040518060400160405280600581526020017f55736167650000000000000000000000000000000000000000000000000000008152506000826040518082805190602001908083835b602083106200068a578051825260208201915060208101905060208303925062000665565b6001836020036101000a03801982511681845116808217855250505050505090500191505090815260200160405180910390206008019080519060200190620006d592919062000a7f565b506040518060400160405280600a81526020017f4c6f63616c204661726d000000000000000000000000000000000000000000008152506000826040518082805190602001908083835b602083106200074457805182526020820191506020810190506020830392506200071f565b6001836020036101000a038019825116818451168082178552505050505050905001915050908152602001604051809103902060090190805190602001906200078f92919062000a7f565b506040518060400160405280600a81526020017f4d722e204661726d6572000000000000000000000000000000000000000000008152506000826040518082805190602001908083835b60208310620007fe5780518252602082019150602081019050602083039250620007d9565b6001836020036101000a0380198251168184511680821785525050505050509050019150509081526020016040518091039020600a0190805190602001906200084992919062000a7f565b506040518060400160405280600781526020017f41726162696361000000000000000000000000000000000000000000000000008152506000826040518082805190602001908083835b60208310620008b8578051825260208201915060208101905060208303925062000893565b6001836020036101000a0380198251168184511680821785525050505050509050019150509081526020016040518091039020600b0190805190602001906200090392919062000a7f565b506040518060400160405280600481526020017f4d697374000000000000000000000000000000000000000000000000000000008152506000826040518082805190602001908083835b602083106200097257805182526020820191506020810190506020830392506200094d565b6001836020036101000a0380198251168184511680821785525050505050509050019150509081526020016040518091039020600c019080519060200190620009bd92919062000a7f565b506040518060400160405280600581526020017f4e6f7274680000000000000000000000000000000000000000000000000000008152506000826040518082805190602001908083835b6020831062000a2c578051825260208201915060208101905060208303925062000a07565b6001836020036101000a0380198251168184511680821785525050505050509050019150509081526020016040518091039020600d01908051906020019062000a7792919062000a7f565b505062000b25565b828054600181600116156101000203166002900490600052602060002090601f016020900481019282601f1062000ac257805160ff191683800117855562000af3565b8280016001018555821562000af3579182015b8281111562000af257825182559160200191906001019062000ad5565b5b50905062000b02919062000b06565b5090565b5b8082111562000b2157600081600090555060010162000b07565b5090565b6131ac8062000b356000396000f3fe608060405234801561001057600080fd5b506004361061009e5760003560e01c8063db72572311610066578063db72572314610a77578063de54a4cc14610d0d578063e9c61c1e146110d1578063f1f62a12146112dd578063fb0b38dc146114e95761009e565b806328b16c4f146100a35780632ce14c031461033957806330349d7a146105455780634dc13949146107db578063b4ddf9561461090f575b600080fd5b610321600480360360808110156100b957600080fd5b81019080803590602001906401000000008111156100d657600080fd5b8201836020820111156100e857600080fd5b8035906020019184600183028401116401000000008311171561010a57600080fd5b91908080601f016020809104026020016040519081016040528093929190818152602001838380828437600081840152601f19601f8201169050808301925050505050505091929192908035906020019064010000000081111561016d57600080fd5b82018360208201111561017f57600080fd5b803590602001918460018302840111640100000000831117156101a157600080fd5b91908080601f016020809104026020016040519081016040528093929190818152602001838380828437600081840152601f19601f8201169050808301925050505050505091929192908035906020019064010000000081111561020457600080fd5b82018360208201111561021657600080fd5b8035906020019184600183028401116401000000008311171561023857600080fd5b91908080601f016020809104026020016040519081016040528093929190818152602001838380828437600081840152601f19601f8201169050808301925050505050505091929192908035906020019064010000000081111561029b57600080fd5b8201836020820111156102ad57600080fd5b803590602001918460018302840111640100000000831117156102cf57600080fd5b91908080601f016020809104026020016040519081016040528093929190818152602001838380828437600081840152601f19601f8201169050808301925050505050505091929192905050506117cd565b60405180821515815260200191505060405180910390f35b6103f26004803603602081101561034f57600080fd5b810190808035906020019064010000000081111561036c57600080fd5b82018360208201111561037e57600080fd5b803590602001918460018302840111640100000000831117156103a057600080fd5b91908080601f016020809104026020016040519081016040528093929190818152602001838380828437600081840152601f19601f82011690508083019250505050505050919291929050505061195e565b60405180806020018060200180602001848103845287818151815260200191508051906020019080838360005b8381101561043a57808201518184015260208101905061041f565b50505050905090810190601f1680156104675780820380516001836020036101000a031916815260200191505b50848103835286818151815260200191508051906020019080838360005b838110156104a0578082015181840152602081019050610485565b50505050905090810190601f1680156104cd5780820380516001836020036101000a031916815260200191505b50848103825285818151815260200191508051906020019080838360005b838110156105065780820151818401526020810190506104eb565b50505050905090810190601f1680156105335780820380516001836020036101000a031916815260200191505b50965050505050505060405180910390f35b6107c36004803603608081101561055b57600080fd5b810190808035906020019064010000000081111561057857600080fd5b82018360208201111561058a57600080fd5b803590602001918460018302840111640100000000831117156105ac57600080fd5b91908080601f016020809104026020016040519081016040528093929190818152602001838380828437600081840152601f19601f8201169050808301925050505050505091929192908035906020019064010000000081111561060f57600080fd5b82018360208201111561062157600080fd5b8035906020019184600183028401116401000000008311171561064357600080fd5b91908080601f016020809104026020016040519081016040528093929190818152602001838380828437600081840152601f19601f820116905080830192505050505050509192919290803590602001906401000000008111156106a657600080fd5b8201836020820111156106b857600080fd5b803590602001918460018302840111640100000000831117156106da57600080fd5b91908080601f016020809104026020016040519081016040528093929190818152602001838380828437600081840152601f19601f8201169050808301925050505050505091929192908035906020019064010000000081111561073d57600080fd5b82018360208201111561074f57600080fd5b8035906020019184600183028401116401000000008311171561077157600080fd5b91908080601f016020809104026020016040519081016040528093929190818152602001838380828437600081840152601f19601f820116905080830192505050505050509192919290505050611c88565b60405180821515815260200191505060405180910390f35b610894600480360360208110156107f157600080fd5b810190808035906020019064010000000081111561080e57600080fd5b82018360208201111561082057600080fd5b8035906020019184600183028401116401000000008311171561084257600080fd5b91908080601f016020809104026020016040519081016040528093929190818152602001838380828437600081840152601f19601f820116905080830192505050505050509192919290505050611e19565b6040518080602001828103825283818151815260200191508051906020019080838360005b838110156108d45780820151818401526020810190506108b9565b50505050905090810190601f1680156109015780820380516001836020036101000a031916815260200191505b509250505060405180910390f35b610a5f6004803603604081101561092557600080fd5b810190808035906020019064010000000081111561094257600080fd5b82018360208201111561095457600080fd5b8035906020019184600183028401116401000000008311171561097657600080fd5b91908080601f016020809104026020016040519081016040528093929190818152602001838380828437600081840152601f19601f820116905080830192505050505050509192919290803590602001906401000000008111156109d957600080fd5b8201836020820111156109eb57600080fd5b80359060200191846001830284011164010000000083111715610a0d57600080fd5b91908080601f016020809104026020016040519081016040528093929190818152602001838380828437600081840152601f19601f820116905080830192505050505050509192919290505050611f9c565b60405180821515815260200191505060405180910390f35b610cf560048036036080811015610a8d57600080fd5b8101908080359060200190640100000000811115610aaa57600080fd5b820183602082011115610abc57600080fd5b80359060200191846001830284011164010000000083111715610ade57600080fd5b91908080601f016020809104026020016040519081016040528093929190818152602001838380828437600081840152601f19601f82011690508083019250505050505050919291929080359060200190640100000000811115610b4157600080fd5b820183602082011115610b5357600080fd5b80359060200191846001830284011164010000000083111715610b7557600080fd5b91908080601f016020809104026020016040519081016040528093929190818152602001838380828437600081840152601f19601f82011690508083019250505050505050919291929080359060200190640100000000811115610bd857600080fd5b820183602082011115610bea57600080fd5b80359060200191846001830284011164010000000083111715610c0c57600080fd5b91908080601f016020809104026020016040519081016040528093929190818152602001838380828437600081840152601f19601f82011690508083019250505050505050919291929080359060200190640100000000811115610c6f57600080fd5b820183602082011115610c8157600080fd5b80359060200191846001830284011164010000000083111715610ca357600080fd5b91908080601f016020809104026020016040519081016040528093929190818152602001838380828437600081840152601f19601f8201169050808301925050505050505091929192905050506120f8565b60405180821515815260200191505060405180910390f35b6110b9600480360360c0811015610d2357600080fd5b8101908080359060200190640100000000811115610d4057600080fd5b820183602082011115610d5257600080fd5b80359060200191846001830284011164010000000083111715610d7457600080fd5b91908080601f016020809104026020016040519081016040528093929190818152602001838380828437600081840152601f19601f82011690508083019250505050505050919291929080359060200190640100000000811115610dd757600080fd5b820183602082011115610de957600080fd5b80359060200191846001830284011164010000000083111715610e0b57600080fd5b91908080601f016020809104026020016040519081016040528093929190818152602001838380828437600081840152601f19601f82011690508083019250505050505050919291929080359060200190640100000000811115610e6e57600080fd5b820183602082011115610e8057600080fd5b80359060200191846001830284011164010000000083111715610ea257600080fd5b91908080601f016020809104026020016040519081016040528093929190818152602001838380828437600081840152601f19601f82011690508083019250505050505050919291929080359060200190640100000000811115610f0557600080fd5b820183602082011115610f1757600080fd5b80359060200191846001830284011164010000000083111715610f3957600080fd5b91908080601f016020809104026020016040519081016040528093929190818152602001838380828437600081840152601f19601f82011690508083019250505050505050919291929080359060200190640100000000811115610f9c57600080fd5b820183602082011115610fae57600080fd5b80359060200191846001830284011164010000000083111715610fd057600080fd5b91908080601f016020809104026020016040519081016040528093929190818152602001838380828437600081840152601f19601f8201169050808301925050505050505091929192908035906020019064010000000081111561103357600080fd5b82018360208201111561104557600080fd5b8035906020019184600183028401116401000000008311171561106757600080fd5b91908080601f016020809104026020016040519081016040528093929190818152602001838380828437600081840152601f19601f820116905080830192505050505050509192919290505050612289565b60405180821515815260200191505060405180910390f35b61118a600480360360208110156110e757600080fd5b810190808035906020019064010000000081111561110457600080fd5b82018360208201111561111657600080fd5b8035906020019184600183028401116401000000008311171561113857600080fd5b91908080601f016020809104026020016040519081016040528093929190818152602001838380828437600081840152601f19601f82011690508083019250505050505050919291929050505061251e565b60405180806020018060200180602001848103845287818151815260200191508051906020019080838360005b838110156111d25780820151818401526020810190506111b7565b50505050905090810190601f1680156111ff5780820380516001836020036101000a031916815260200191505b50848103835286818151815260200191508051906020019080838360005b8381101561123857808201518184015260208101905061121d565b50505050905090810190601f1680156112655780820380516001836020036101000a031916815260200191505b50848103825285818151815260200191508051906020019080838360005b8381101561129e578082015181840152602081019050611283565b50505050905090810190601f1680156112cb5780820380516001836020036101000a031916815260200191505b50965050505050505060405180910390f35b611396600480360360208110156112f357600080fd5b810190808035906020019064010000000081111561131057600080fd5b82018360208201111561132257600080fd5b8035906020019184600183028401116401000000008311171561134457600080fd5b91908080601f016020809104026020016040519081016040528093929190818152602001838380828437600081840152601f19601f820116905080830192505050505050509192919290505050612848565b60405180806020018060200180602001848103845287818151815260200191508051906020019080838360005b838110156113de5780820151818401526020810190506113c3565b50505050905090810190601f16801561140b5780820380516001836020036101000a031916815260200191505b50848103835286818151815260200191508051906020019080838360005b83811015611444578082015181840152602081019050611429565b50505050905090810190601f1680156114715780820380516001836020036101000a031916815260200191505b50848103825285818151815260200191508051906020019080838360005b838110156114aa57808201518184015260208101905061148f565b50505050905090810190601f1680156114d75780820380516001836020036101000a031916815260200191505b50965050505050505060405180910390f35b6115a2600480360360208110156114ff57600080fd5b810190808035906020019064010000000081111561151c57600080fd5b82018360208201111561152e57600080fd5b8035906020019184600183028401116401000000008311171561155057600080fd5b91908080601f016020809104026020016040519081016040528093929190818152602001838380828437600081840152601f19601f820116905080830192505050505050509192919290505050612b72565b60405180806020018060200180602001806020018060200186810386528b818151815260200191508051906020019080838360005b838110156115f25780820151818401526020810190506115d7565b50505050905090810190601f16801561161f5780820380516001836020036101000a031916815260200191505b5086810385528a818151815260200191508051906020019080838360005b8381101561165857808201518184015260208101905061163d565b50505050905090810190601f1680156116855780820380516001836020036101000a031916815260200191505b50868103845289818151815260200191508051906020019080838360005b838110156116be5780820151818401526020810190506116a3565b50505050905090810190601f1680156116eb5780820380516001836020036101000a031916815260200191505b50868103835288818151815260200191508051906020019080838360005b83811015611724578082015181840152602081019050611709565b50505050905090810190601f1680156117515780820380516001836020036101000a031916815260200191505b50868103825287818151815260200191508051906020019080838360005b8381101561178a57808201518184015260208101905061176f565b50505050905090810190601f1680156117b75780820380516001836020036101000a031916815260200191505b509a505050505050505050505060405180910390f35b6000836000866040518082805190602001908083835b6020831061180657805182526020820191506020810190506020830392506117e3565b6001836020036101000a0380198251168184511680821785525050505050509050019150509081526020016040518091039020600601908051906020019061184f9291906130b5565b50826000866040518082805190602001908083835b602083106118875780518252602082019150602081019050602083039250611864565b6001836020036101000a038019825116818451168082178552505050505050905001915050908152602001604051809103902060070190805190602001906118d09291906130b5565b50816000866040518082805190602001908083835b6020831061190857805182526020820191506020810190506020830392506118e5565b6001836020036101000a038019825116818451168082178552505050505050905001915050908152602001604051809103902060080190805190602001906119519291906130b5565b5060019050949350505050565b60608060606000846040518082805190602001908083835b602083106119995780518252602082019150602081019050602083039250611976565b6001836020036101000a03801982511681845116808217855250505050505090500191505090815260200160405180910390206003016000856040518082805190602001908083835b60208310611a0557805182526020820191506020810190506020830392506119e2565b6001836020036101000a03801982511681845116808217855250505050505090500191505090815260200160405180910390206004016000866040518082805190602001908083835b60208310611a715780518252602082019150602081019050602083039250611a4e565b6001836020036101000a0380198251168184511680821785525050505050509050019150509081526020016040518091039020600501828054600181600116156101000203166002900480601f016020809104026020016040519081016040528092919081815260200182805460018160011615610100020316600290048015611b3c5780601f10611b1157610100808354040283529160200191611b3c565b820191906000526020600020905b815481529060010190602001808311611b1f57829003601f168201915b50505050509250818054600181600116156101000203166002900480601f016020809104026020016040519081016040528092919081815260200182805460018160011615610100020316600290048015611bd85780601f10611bad57610100808354040283529160200191611bd8565b820191906000526020600020905b815481529060010190602001808311611bbb57829003601f168201915b50505050509150808054600181600116156101000203166002900480601f016020809104026020016040519081016040528092919081815260200182805460018160011615610100020316600290048015611c745780601f10611c4957610100808354040283529160200191611c74565b820191906000526020600020905b815481529060010190602001808311611c5757829003601f168201915b505050505090509250925092509193909250565b6000836000866040518082805190602001908083835b60208310611cc15780518252602082019150602081019050602083039250611c9e565b6001836020036101000a03801982511681845116808217855250505050505090500191505090815260200160405180910390206000019080519060200190611d0a9291906130b5565b50826000866040518082805190602001908083835b60208310611d425780518252602082019150602081019050602083039250611d1f565b6001836020036101000a03801982511681845116808217855250505050505090500191505090815260200160405180910390206001019080519060200190611d8b9291906130b5565b50816000866040518082805190602001908083835b60208310611dc35780518252602082019150602081019050602083039250611da0565b6001836020036101000a03801982511681845116808217855250505050505090500191505090815260200160405180910390206002019080519060200190611e0c9291906130b5565b5060019050949350505050565b6060600082511415611e93576040517f08c379a000000000000000000000000000000000000000000000000000000000815260040180806020018281038252601a8152602001807f547261636b6572204944206d7573742062652066696c6c65642e00000000000081525060200191505060405180910390fd5b6001826040518082805190602001908083835b60208310611ec95780518252602082019150602081019050602083039250611ea6565b6001836020036101000a03801982511681845116808217855250505050505090500191505090815260200160405180910390208054600181600116156101000203166002900480601f016020809104026020016040519081016040528092919081815260200182805460018160011615610100020316600290048015611f905780601f10611f6557610100808354040283529160200191611f90565b820191906000526020600020905b815481529060010190602001808311611f7357829003601f168201915b50505050509050919050565b60008083511415612015576040517f08c379a000000000000000000000000000000000000000000000000000000000815260040180806020018281038252601a8152602001807f547261636b6572204944206d7573742062652066696c6c65642e00000000000081525060200191505060405180910390fd5b600082511415612070576040517f08c379a00000000000000000000000000000000000000000000000000000000081526004018080602001828103825260248152602001806131536024913960400191505060405180910390fd5b816001846040518082805190602001908083835b602083106120a75780518252602082019150602081019050602083039250612084565b6001836020036101000a038019825116818451168082178552505050505050905001915050908152602001604051809103902090805190602001906120ed9291906130b5565b506001905092915050565b6000836000866040518082805190602001908083835b60208310612131578051825260208201915060208101905060208303925061210e565b6001836020036101000a0380198251168184511680821785525050505050509050019150509081526020016040518091039020600301908051906020019061217a9291906130b5565b50826000866040518082805190602001908083835b602083106121b2578051825260208201915060208101905060208303925061218f565b6001836020036101000a038019825116818451168082178552505050505050905001915050908152602001604051809103902060040190805190602001906121fb9291906130b5565b50816000866040518082805190602001908083835b602083106122335780518252602082019150602081019050602083039250612210565b6001836020036101000a0380198251168184511680821785525050505050509050019150509081526020016040518091039020600501908051906020019061227c9291906130b5565b5060019050949350505050565b6000856000886040518082805190602001908083835b602083106122c2578051825260208201915060208101905060208303925061229f565b6001836020036101000a0380198251168184511680821785525050505050509050019150509081526020016040518091039020600901908051906020019061230b9291906130b5565b50846000886040518082805190602001908083835b602083106123435780518252602082019150602081019050602083039250612320565b6001836020036101000a0380198251168184511680821785525050505050509050019150509081526020016040518091039020600a01908051906020019061238c9291906130b5565b50836000886040518082805190602001908083835b602083106123c457805182526020820191506020810190506020830392506123a1565b6001836020036101000a0380198251168184511680821785525050505050509050019150509081526020016040518091039020600b01908051906020019061240d9291906130b5565b50826000886040518082805190602001908083835b602083106124455780518252602082019150602081019050602083039250612422565b6001836020036101000a0380198251168184511680821785525050505050509050019150509081526020016040518091039020600c01908051906020019061248e9291906130b5565b50816000886040518082805190602001908083835b602083106124c657805182526020820191506020810190506020830392506124a3565b6001836020036101000a0380198251168184511680821785525050505050509050019150509081526020016040518091039020600d01908051906020019061250f9291906130b5565b50600190509695505050505050565b60608060606000846040518082805190602001908083835b602083106125595780518252602082019150602081019050602083039250612536565b6001836020036101000a03801982511681845116808217855250505050505090500191505090815260200160405180910390206006016000856040518082805190602001908083835b602083106125c557805182526020820191506020810190506020830392506125a2565b6001836020036101000a03801982511681845116808217855250505050505090500191505090815260200160405180910390206007016000866040518082805190602001908083835b60208310612631578051825260208201915060208101905060208303925061260e565b6001836020036101000a0380198251168184511680821785525050505050509050019150509081526020016040518091039020600801828054600181600116156101000203166002900480601f0160208091040260200160405190810160405280929190818152602001828054600181600116156101000203166002900480156126fc5780601f106126d1576101008083540402835291602001916126fc565b820191906000526020600020905b8154815290600101906020018083116126df57829003601f168201915b50505050509250818054600181600116156101000203166002900480601f0160208091040260200160405190810160405280929190818152602001828054600181600116156101000203166002900480156127985780601f1061276d57610100808354040283529160200191612798565b820191906000526020600020905b81548152906001019060200180831161277b57829003601f168201915b50505050509150808054600181600116156101000203166002900480601f0160208091040260200160405190810160405280929190818152602001828054600181600116156101000203166002900480156128345780601f1061280957610100808354040283529160200191612834565b820191906000526020600020905b81548152906001019060200180831161281757829003601f168201915b505050505090509250925092509193909250565b60608060606000846040518082805190602001908083835b602083106128835780518252602082019150602081019050602083039250612860565b6001836020036101000a03801982511681845116808217855250505050505090500191505090815260200160405180910390206000016000856040518082805190602001908083835b602083106128ef57805182526020820191506020810190506020830392506128cc565b6001836020036101000a03801982511681845116808217855250505050505090500191505090815260200160405180910390206001016000866040518082805190602001908083835b6020831061295b5780518252602082019150602081019050602083039250612938565b6001836020036101000a0380198251168184511680821785525050505050509050019150509081526020016040518091039020600201828054600181600116156101000203166002900480601f016020809104026020016040519081016040528092919081815260200182805460018160011615610100020316600290048015612a265780601f106129fb57610100808354040283529160200191612a26565b820191906000526020600020905b815481529060010190602001808311612a0957829003601f168201915b50505050509250818054600181600116156101000203166002900480601f016020809104026020016040519081016040528092919081815260200182805460018160011615610100020316600290048015612ac25780601f10612a9757610100808354040283529160200191612ac2565b820191906000526020600020905b815481529060010190602001808311612aa557829003601f168201915b50505050509150808054600181600116156101000203166002900480601f016020809104026020016040519081016040528092919081815260200182805460018160011615610100020316600290048015612b5e5780601f10612b3357610100808354040283529160200191612b5e565b820191906000526020600020905b815481529060010190602001808311612b4157829003601f168201915b505050505090509250925092509193909250565b60608060608060606000866040518082805190602001908083835b60208310612bb05780518252602082019150602081019050602083039250612b8d565b6001836020036101000a03801982511681845116808217855250505050505090500191505090815260200160405180910390206009016000876040518082805190602001908083835b60208310612c1c5780518252602082019150602081019050602083039250612bf9565b6001836020036101000a0380198251168184511680821785525050505050509050019150509081526020016040518091039020600a016000886040518082805190602001908083835b60208310612c885780518252602082019150602081019050602083039250612c65565b6001836020036101000a0380198251168184511680821785525050505050509050019150509081526020016040518091039020600b016000896040518082805190602001908083835b60208310612cf45780518252602082019150602081019050602083039250612cd1565b6001836020036101000a0380198251168184511680821785525050505050509050019150509081526020016040518091039020600c0160008a6040518082805190602001908083835b60208310612d605780518252602082019150602081019050602083039250612d3d565b6001836020036101000a0380198251168184511680821785525050505050509050019150509081526020016040518091039020600d01848054600181600116156101000203166002900480601f016020809104026020016040519081016040528092919081815260200182805460018160011615610100020316600290048015612e2b5780601f10612e0057610100808354040283529160200191612e2b565b820191906000526020600020905b815481529060010190602001808311612e0e57829003601f168201915b50505050509450838054600181600116156101000203166002900480601f016020809104026020016040519081016040528092919081815260200182805460018160011615610100020316600290048015612ec75780601f10612e9c57610100808354040283529160200191612ec7565b820191906000526020600020905b815481529060010190602001808311612eaa57829003601f168201915b50505050509350828054600181600116156101000203166002900480601f016020809104026020016040519081016040528092919081815260200182805460018160011615610100020316600290048015612f635780601f10612f3857610100808354040283529160200191612f63565b820191906000526020600020905b815481529060010190602001808311612f4657829003601f168201915b50505050509250818054600181600116156101000203166002900480601f016020809104026020016040519081016040528092919081815260200182805460018160011615610100020316600290048015612fff5780601f10612fd457610100808354040283529160200191612fff565b820191906000526020600020905b815481529060010190602001808311612fe257829003601f168201915b50505050509150808054600181600116156101000203166002900480601f01602080910402602001604051908101604052809291908181526020018280546001816001161561010002031660029004801561309b5780601f106130705761010080835404028352916020019161309b565b820191906000526020600020905b81548152906001019060200180831161307e57829003601f168201915b505050505090509450945094509450945091939590929450565b828054600181600116156101000203166002900490600052602060002090601f016020900481019282601f106130f657805160ff1916838001178555613124565b82800160010185558215613124579182015b82811115613123578251825591602001919060010190613108565b5b5090506131319190613135565b5090565b5b8082111561314e576000816000905550600101613136565b509056fe547261636520636f6e74656e7420286a736f6e29206d7573742062652066696c6c65642ea26469706673582212208888f73ae706444d47be73afcb26238f04d5944f17c9a07baa1723bb9c6ea0dd64736f6c63430007000033",
  "immutableReferences": {},
  "source": "//SPDX-License-Identifier: MIT\r\npragma solidity ^0.7.0;\r\n\r\ncontract BTracer_v1 {\r\n    \r\n    struct trckr {\r\n        string orderno; \r\n        string process;\r\n        string operation;\r\n        string production;\r\n        string year;\r\n        string lastsequence;\r\n        string tckr_type;\r\n        string comments;\r\n        string usage;\r\n        string farm;\r\n        string farmer;\r\n        string variety;\r\n        string weather;\r\n        string region;\r\n    }\r\n    \r\n    mapping (string => trckr) private tracker;\r\n    mapping (string => string) trackerCod;\r\n\r\n    constructor() {\r\n        string memory _id = \"0\";\r\n        tracker[_id].orderno = \"A2020\";\r\n        tracker[_id].process = \"Process A\";\r\n        tracker[_id].operation = \"operation A\";\r\n        tracker[_id].production = \"production A\";\r\n        tracker[_id].year = \"2020\";\r\n        tracker[_id].lastsequence = \"1\";\r\n        tracker[_id].tckr_type = \"Type\";\r\n        tracker[_id].comments = \"Comments comes here!\";\r\n        tracker[_id].usage = \"Usage\";\r\n        tracker[_id].farm = \"Local Farm\";\r\n        tracker[_id].farmer = \"Mr. Farmer\";\r\n        tracker[_id].variety = \"Arabica\";\r\n        tracker[_id].weather = \"Mist\";\r\n        tracker[_id].region = \"North\";\r\n    }\r\n    \r\n    function addNewTrace_Payload_B(string memory _id, \r\n                        string memory orderno, \r\n                        string memory process,\r\n                        string memory operation) public returns (bool _retB) {\r\n            \r\n        tracker[_id].orderno = orderno;\r\n        tracker[_id].process = process;\r\n        tracker[_id].operation = operation;\r\n        \r\n        return true;\r\n    }    \r\n    \r\n    function addNewTrace_Payload_C(string memory _id, \r\n                        string memory production,\r\n                        string memory year,\r\n                        string memory lastsequence) public returns (bool _retC) {\r\n                            \r\n        tracker[_id].production = production;\r\n        tracker[_id].year = year;\r\n        tracker[_id].lastsequence = lastsequence;\r\n        \r\n        return true;\r\n    }   \r\n    \r\n    function addNewTrace_Payload_D(string memory _id, \r\n                        string memory tckr_type,\r\n                        string memory comments,\r\n                        string memory usage) public returns (bool _retD) {\r\n                            \r\n        tracker[_id].tckr_type = tckr_type;\r\n        tracker[_id].comments = comments;\r\n        tracker[_id].usage = usage;\r\n        \r\n        return true;\r\n    }\r\n    \r\n    function addNewTrace_Payload_E(string memory _id, \r\n                        string memory farm,\r\n                        string memory farmer,\r\n                        string memory variety,\r\n                        string memory weather,\r\n                        string memory region) public returns (bool _retE) {\r\n                            \r\n        tracker[_id].farm = farm;\r\n        tracker[_id].farmer = farmer;\r\n        tracker[_id].variety = variety;\r\n        tracker[_id].weather = weather;\r\n        tracker[_id].region = region;\r\n        \r\n        return true;\r\n    }\r\n        \r\n    function getTrace_Payload_B(string memory _id) public view returns ( string memory orderno, \r\n                                                                    string memory process,\r\n                                                                    string memory operation ) {\r\n            \r\n        return ( tracker[_id].orderno,\r\n                tracker[_id].process,\r\n                tracker[_id].operation );\r\n        \r\n    }    \r\n    \r\n    function getTrace_Payload_C(string memory _id) public view returns ( string memory production,\r\n                                                                    string memory year,\r\n                                                                    string memory lastsequence ) {\r\n        return ( tracker[_id].production,\r\n                tracker[_id].year,\r\n                tracker[_id].lastsequence );\r\n\r\n    }   \r\n    \r\n    function getTrace_Payload_D(string memory _id) public view returns ( string memory tckr_type,\r\n                                                                    string memory comments,\r\n                                                                    string memory usage ) {\r\n        return ( tracker[_id].tckr_type,\r\n                tracker[_id].comments,\r\n                tracker[_id].usage );\r\n    }\r\n    \r\n    function getTrace_Payload_E(string memory _id) public view returns ( string memory farm,\r\n                                                                    string memory farmer,\r\n                                                                    string memory variety,\r\n                                                                    string memory weather,\r\n                                                                    string memory region ) {\r\n        return ( tracker[_id].farm,\r\n                tracker[_id].farmer,\r\n                tracker[_id].variety,\r\n                tracker[_id].weather,\r\n                tracker[_id].region );\r\n    }\r\n\r\n    function addTraceCod(string memory _id, string memory trace) public returns (bool) {\r\n        require(bytes(_id).length != 0, \"Tracker ID must be filled.\");\r\n        require(bytes(trace).length != 0, \"Trace content (json) must be filled.\");\r\n\r\n        trackerCod[_id] = trace;\r\n\r\n        return true;\r\n    }\r\n\r\n    function getTraceCod(string memory _id) public view returns (string memory) {\r\n        require(bytes(_id).length != 0, \"Tracker ID must be filled.\");\r\n        \r\n        return trackerCod[_id];\r\n    }    \r\n}",
  "sourcePath": "C:/Blockchain_Projects/BTracer/contracts/BTracer_v1.sol",
  "compiler": {
    "name": "solc",
    "version": "0.7.0+commit.9e61f92b.Emscripten.clang"
  },
  "schemaVersion": "3.2.3",
  "updatedAt": "2021-01-08T20:51:19.994Z",
  "networkType": "ethereum",
  "devdoc": {
    "kind": "dev",
    "methods": {},
    "version": 1
  },
  "userdoc": {
    "kind": "user",
    "methods": {},
    "version": 1
  }
}