{
  "contractName": "ContractData",
  "abi": [
    {
      "inputs": [
        {
          "internalType": "address",
          "name": "tokenAddress",
          "type": "address"
        }
      ],
      "name": "getDetails",
      "outputs": [
        {
          "internalType": "string",
          "name": "_name",
          "type": "string"
        },
        {
          "internalType": "string",
          "name": "_symbol",
          "type": "string"
        },
        {
          "internalType": "uint256",
          "name": "_decimals",
          "type": "uint256"
        }
      ],
      "stateMutability": "view",
      "type": "function",
      "constant": true
    }
  ],
  "bytecode": "0x608060405234801561001057600080fd5b506104c1806100206000396000f3fe608060405234801561001057600080fd5b506004361061002b5760003560e01c806330289c6114610030575b600080fd5b6100726004803603602081101561004657600080fd5b81019080803573ffffffffffffffffffffffffffffffffffffffff169060200190929190505050610160565b604051808060200180602001848152602001838103835286818151815260200191508051906020019080838360005b838110156100bc5780820151818401526020810190506100a1565b50505050905090810190601f1680156100e95780820380516001836020036101000a031916815260200191505b50838103825285818151815260200191508051906020019080838360005b83811015610122578082015181840152602081019050610107565b50505050905090810190601f16801561014f5780820380516001836020036101000a031916815260200191505b509550505050505060405180910390f35b60608060008084905060608173ffffffffffffffffffffffffffffffffffffffff166306fdde036040518163ffffffff1660e01b815260040160006040518083038186803b1580156101b157600080fd5b505afa1580156101c5573d6000803e3d6000fd5b505050506040513d6000823e3d601f19601f8201168201806040525060208110156101ef57600080fd5b810190808051604051939291908464010000000082111561020f57600080fd5b8382019150602082018581111561022557600080fd5b825186600182028301116401000000008211171561024257600080fd5b8083526020830192505050908051906020019080838360005b8381101561027657808201518184015260208101905061025b565b50505050905090810190601f1680156102a35780820380516001836020036101000a031916815260200191505b50604052505050905060608273ffffffffffffffffffffffffffffffffffffffff166395d89b416040518163ffffffff1660e01b815260040160006040518083038186803b1580156102f457600080fd5b505afa158015610308573d6000803e3d6000fd5b505050506040513d6000823e3d601f19601f82011682018060405250602081101561033257600080fd5b810190808051604051939291908464010000000082111561035257600080fd5b8382019150602082018581111561036857600080fd5b825186600182028301116401000000008211171561038557600080fd5b8083526020830192505050908051906020019080838360005b838110156103b957808201518184015260208101905061039e565b50505050905090810190601f1680156103e65780820380516001836020036101000a031916815260200191505b50604052505050905060008373ffffffffffffffffffffffffffffffffffffffff1663313ce5676040518163ffffffff1660e01b815260040160206040518083038186803b15801561043757600080fd5b505afa15801561044b573d6000803e3d6000fd5b505050506040513d602081101561046157600080fd5b810190808051906020019092919050505060ff16905082828296509650965050505050919390925056fea26469706673582212200726a6389a6a2595ae6dd2f10fa52728c9902defab45b8e47d2d6244764ffe6664736f6c63430007000033",
  "immutableReferences": {},
  "source": "//SPDX-License-Identifier: MIT\r\npragma solidity ^0.7.0;\r\n\r\nimport './ERC20Basic.sol';\r\n\r\ncontract ContractData {\r\n\r\n    function getDetails(address tokenAddress) public view returns (string memory _name, string memory _symbol, uint _decimals){\r\n\r\n        ERC20Basic token = ERC20Basic(tokenAddress);\r\n        string memory name = token.name();\r\n        string memory symbol = token.symbol();\r\n        uint decimals = token.decimals();\r\n\r\n        return (name, symbol, decimals);\r\n    }\r\n}",
  "sourcePath": "C:/Blockchain_Projects/BTracer/contracts/ContractData.sol",
  "compiler": {
    "name": "solc",
    "version": "0.7.0+commit.9e61f92b.Emscripten.clang"
  },
  "schemaVersion": "3.2.3",
  "updatedAt": "2021-01-08T20:51:20.006Z",
  "networkType": "ethereum",
  "devdoc": {
    "kind": "dev",
    "methods": {},
    "version": 1
  },
  "userdoc": {
    "kind": "user",
    "methods": {},
    "version": 1
  }
}